:03000000020F3DAF
:0C0F3D00787FE4F6D8FD75818D020F84EA
:0B13E600EF1FAC0670011E4C70F622D9
:1012EB00AB07AA06EB1B70011A144A60107FF57E40
:0E12FB00001213E67FF57E001213E680E72254
:0F13C900C2A0D2A1C2A200D2A22087F4C2A22247
:101386001213C9C2A0C2A18F80D2A2000000C2A2BD
:011396002234
:101397001213C9D2A0C2A18F80D2A2000000C2A29C
:0113A7002223
:101036007F287E001212EBD2A77F017E001212EBF0
:101046007F301213867F327E001212EB7F3012132E
:10105600867F327E001212EB7F0C1213867F327E61
:10106600001212EB7F011213867F147E001212EB20
:0C1076007F061213867F327E000212EB10
:10129900ED24FE601014601314601624037016EF19
:1012A9002480FE8010EF2490FE800AEF2488FE80BF
:0A12B90004EF2498FEAF060213862E
:1011E7008B608A618962121299AB60AA61A9621247
:1011F700087FFF601712139774012562F562E435C3
:0D12070061F5617F327E001213E680DD226A
:090E060007562801151A0C040C12
:10133F00E4FEEF30E004D2A58002C2A5D2A4C2A47D
:08134F00EFC313FF0EBE08EA14
:011357002273
:10137100C2A4C2A6D2A612133FAF0512133FC2A444
:05138100D2A4C2A62267
:10132500E4FEEFC313FF30A5054307808003530791
:091335007FD2A4C2A40EBE08E997
:01133E00228C
:1013A800C2A6C2A4D2A612133F121325D2A4C2A663
:0113B8002212
:10108200E4FC74562CF8E6FF75F00A84FEEF75F066
:101092000A84A6F0EEC454F0FF74562CF8EF26F63C
:1010A2000CBC07DEE4FD7F8E121371E4FCEC25E03C
:1010B2002480FF74562CF8E6FD1213710CBC07ED68
:0710C2007D807F8E02137197
:10110C00E4FDED25E02481FF1213A874562DF8A6FA
:10111C00070DBD07EDE4FD74562DF8E6FFC4540F22
:10112C00FE74562DF8EF540FF6EE75F00AA4FF740A
:0A113C00562DF8EF26F60DBD07DD75
:011146002286
:10135800EF75F00A842430120898EF75F00A84E5D6
:09136800F024309000010208AAF3
:100E0F000D49001F001F1E1F1E1F1F1E1F1E1F012B
:020E1F0048FF8A
:0911B500E55C24D0FFE43407FEE0
:1011BE00AB07AA06EB5403700AFC7D641208CCED53
:1011CE004C700FAE02AF037C017D901208CCED4C3B
:0911DE0070047F0180027F0022F1
:100EA700755F007560059007D0E55C24D0FFE434DA
:100EB70007FEC3E5829FE5839E502EAF82AE831265
:100EC70011BEEF7E0160047F6E80027F6D8E618FA1
:100ED70062E5602562FFE55F3561FE7C007D0712F4
:100EE70008CC8C5F8D60A380C0E4F561F562F58363
:100EF700758201AF8274562FF8E6FFC3E5829FE53E
:100F070083940050127449255AF8E62562F562E485
:100F17003561F561A380DCE5592562F562E4356149
:100F2700F561E5602562FFE55F3561FE7C007D07C1
:050F37001208CC8D5BE7
:010F3C002292
:100D1900A907E548147003020DED147003020DD301
:100D290014607814603E24FE6003020E05B90109BF
:100D3900E55CC394635002055CB9FF09E55CD39493
:100D4900004002155C1211B5EF60047F1D80027F1F
:100D59001C8F4B7449255AF8E6FFE559D39F406724
:100D69008F598063B90109E55AC3940C5002055A99
:100D7900B9FF09E55AD394014002155A1211B5EF8A
:100D890060047F1D80027F1C8F4B7449255AF8E649
:100D9900FFE559D39F40028F59802C1211B5EF609E
:100DA900047F1D80027F1C8F4BB9010F7449255A9E
:100DB900F8E6FFE559C39F50020559B9FF09E559FE
:100DC900D3940040021559020EA7B90109E558C389
:100DD900941750020558E9F47022E558D39400405D
:100DE9001B155822B90109E557C3943B5002055711
:0D0DF900B9FF09E557D394004002155722B9
:1010C900E590B4FF037F0022AF90EF2481601F24D5
:1010D900C0601624E0600D24E860182408701975B2
:1010E9005E018017755E028012755E03800D755E64
:1010F900048008755E058003755EFFE590B4FFFB0B
:02110900AF5ED7
:01110B0022C1
:100E210011373030CAB13030B7D63030C3EB202063
:100E31002020000F2832303030C4EA3030D4C230A4
:0D0E410030C8D5000721204D48444D2059F0
:100FC9008F5EE55E24FE603814603914603B14605E
:100FD9004B24047054E590B4FFFBE548F46005E543
:100FE90048B401037548071548E548B40503754831
:100FF9000475445B74212548F8E6F54575465D227C
:101009007F0180027FFF020D19121082754320753E
:1010190044207545207546207548FF221211471254
:0D1029000B2A7FF47E010212EB755EFF22A0
:1004BC00A1EFA1EFD0C2C4EABFECC0D6A1EF00A15E
:1004CC00EFA1EFCAC0BDE7C2E9B7E7C8D5A1EF00FD
:1004DC00A1EFA1EFCAC0BDE7CAAAB5D8C8D5A1EF94
:1004EC0000A1EFA1EFC3F7CCECC7E9C8CBBDDAA1F3
:1004FC00EF00A1EFA1EFC7E9C8CBBDDABFECC0D6C6
:10050C00A1EF00A1EFA1EFCAC0BDE7C7E0C4EAC8E4
:10051C00D5A1EF00A1EFA1EFB9FABCCABAA3B1AA59
:10052C00BDDAA1EF00A1EFD1A7C0D7B7E6BCCDC40F
:10053C00EEC8D5A1EF00A1EFA1EFC8B0CBB8BEC5F6
:10054C00AEBDDAA1EF00A1EFA1EFD6D0B9FAD6B2C9
:10055C00CAF7BDDAA1EF00A1EFA1EFB9FABCCABE90
:10056C00AFB2ECC8D5A1EF00A1EFCFFBB7D1D5DF6F
:10057C00C8A8D2E6C8D5A1EF00A1EFA1EFCAC0BDB3
:10058C00E7CBAEC8D5A1EFA1EF00A1EFA1EFCAC098
:10059C00BDE7C6F8CFF3C8D5A1EF00A1EFD3DEA11C
:1005AC00EFC8CBA1EFBDDAA1EFA1EF00A1EFD1A76E
:1005BC00CAC0BDE7CEDED1CCC8D5A1EF00A1EFA15A
:1005CC00EFCAC0BDE7B5D8C7F2C8D5A1EF00A1EFFF
:1005DC00B9FABCCAC0CDB6AFBDDAA1EF00A1EFD657
:1005EC00D0B9FAC7E0C4EABDDAA1EF00A1EFCAC0E6
:1005FC00BDE7BAECCAAED7D6C8D5A1EF00A1EFA122
:10060C00EFB9FABCCABBA4CABFBDDAA1EF00A1EF17
:10061C00CAC0BDE7CEDED1CCB2DDBDDAA1EF00A100
:10062C00EFA1EFB9FABCCAB6F9CDAFBDDAA1EF00B4
:10063C00A1EFB9FAA1EFBCCAA1EFC8D5A1EFA1EF08
:10064C0000A1EFA1EFB9FABCCABBB7BEB3C8D5A124
:10065C00EF00A1EFB9FABCCAB0C2C1D6C6A5BFCBD8
:10066C00C8D500A1EFA1EFB9FABCCABDFBB6BEC894
:10067C00D5A1EF00A1EFB9B2B2FAB5B3BCCDC4EEBF
:10068C00C8D5A1EF00A1EFA1EFB9FABCCABACFD778
:10069C00F7BDDAA1EF00A1EFBDA8A1EFBEFCA1EF61
:1006AC00BDDAA1EFA1EF00A1EFD0C2CEC5B9A4D79E
:1006BC00F7D5DFC8D5A1EF00A1EFBDCCA1EFCAA63D
:1006CC00A1EFBDDAA1EFA1EF00A1EFA1EFD6D0B958
:1006DC00FAB0AED1C0C8D5A1EF00A1EFB9FAA1EF25
:1006EC00C7ECA1EFBDDAA1EFA1EF00A1EFB9FABC05
:1006FC00CABACDC6BDB6B7D5F9C8D500A1EFA1EF22
:10070C00CAC0BDE7D3CAD5FEC8D5A1EF00A1EFA1E1
:10071C00EFCAC0BDE7B1EAD7BCC8D5A1EF00A1EFC5
:10072C00A1EFB9FABCCAC3A4C8CBBDDAA1EF00A132
:10073C00EFA1EFCAC0BDE7C1B8CAB3C8D5A1EF00DD
:10074C00A1EFA1EFC1AABACFB9FAC8D5A1EFA1EF19
:10075C0000A1EFCAC0BDE7C7DABCF3C8D5A1EFA1B1
:10076C00EF00A1EFCDF2A1EFCAA5A1EFBDDAA1EF89
:10077C00A1EF00A1EFA1EFB9FABCCAD1A7C9FAC881
:10078C00D5A1EF00A1EFCAC0BDE7B0ACD7CCB2A1E8
:10079C00C8D5A1EF00A1EFCAC0BDE7C8CBC8A8C897
:1007AC00D5A1EFA1EF00A1EFBDF1CDEDA1EFC6BD3D
:1007BC00B0B2D2B9A1EF00A1EFCAA5B5AEA1EFBD01
:1007CC00DABFECC0D6A1EF2100A1EFC3F7CCECA1AE
:1007DC00EFD0C2C4EAA1EFA1EF00A1EFA1EF5F5FE0
:1007EC00A1F8A1F85F5FC1E8B3BF00A1EEA1F05F73
:1007FC005FA1F8A1F75F5FD4E7B3BF005F5FA1F122
:10080C005F5FA1F8A1F85F5FC9CFCEE7005F5F5FC4
:10081C005FA1F8A1F1A1F85F5FD6D0CEE7005F5FD2
:10082C00A1F8A1F85F5FA1F15F5FCFC2CEE700A195
:10083C00F7A1F85F5FA1F1A1EE5F5FCDEDC9CF002D
:10084C00A1F7A1F85F5FA1EFA1EE5F5FD2B9C0EF96
:01085C00009B
:10000E00E55AB4010EE559B401097BFF7A0479BCB7
:10001E0002027CE55AB4010EE559B440097BFF7A21
:10002E000479CB02027CE55AB4020EE559B40209FA
:10003E007BFF7A0479DC02027CE55AB4020EE559A4
:10004E00B40D097BFF7A0479ED02027CE55AB40205
:10005E000EE559B40E097BFF7A0479FE02027CE5A7
:10006E005AB4020EE559B418097BFF7A05790F02CE
:10007E00027CE55AB4030EE559B401097BFF7A05FB
:10008E00792002027CE55AB4030EE559B405097BCA
:10009E00FF7A05793102027CE55AB4030EE559B4B4
:1000AE0008097BFF7A05794202027CE55AB4030EF9
:1000BE00E559B40C097BFF7A05795202027CE55AA8
:1000CE00B4030EE559B40E097BFF7A05796302027B
:1000DE007CE55AB4030EE559B40F097BFF7A057916
:1000EE007402027CE55AB4030EE559B416097BFF7F
:1000FE007A05798502027CE55AB4030EE559B417E8
:10010E00097BFF7A05799602027CE55AB4040EE566
:10011E0059B401097BFF7A0579A702027CE55AB42E
:10012E00040EE559B407097BFF7A0579B802027C03
:10013E00E55AB4040EE559B416097BFF7A0579C960
:10014E0002027CE55AB4050EE559B401097BFF7A2B
:10015E000579DA020265E55AB4050EE559B40409CB
:10016E007BFF7A0579E9020265E55AB4050EE55979
:10017E00B408097BFF7A0579F802027CE55AB405CA
:10018E000EE559B40C097BFF7A067909020265E582
:10019E005AB4050EE559B41F097BFF7A06791A0287
:1001AE00027CE55AB4060EE559B401097BFF7A06C6
:1001BE00792B020265E55AB4060EE559B404097BA3
:1001CE00FF7A06793C020265E55AB4060DE559B48C
:1001DE0005087BFF7A06794D807DE55AB4060EE55B
:1001EE0059B417097BFF7A06795E02027CE55AB490
:1001FE00060DE559B41B087BFF7A06796F8058E52A
:10020E005AB4070DE559B401087BFF7A0679808050
:10021E0046E55AB4070DE559B403087BFF7A067913
:10022E00918034E55AB4080DE559B401087BFF7A84
:10023E000679A28039E55AB4090DE559B408087B50
:10024E00FF7A0679B38010E55AB40912E559B40A5B
:10025E000D7BFF7A0679C47D047F010204B8E55A4E
:10026E00B40912E559B4140D7BFF7A0679D57D04D5
:10027E00E4FF0204B8E55AB40A12E559B4010D7B45
:10028E00FF7A0679E67D04E4FF0204B8E55AB40A63
:10029E0012E559B4020D7BFF7A0679F77D04E4FF6F
:1002AE000204B8E55AB40A12E559B4090D7BFF7A77
:1002BE000779087D04E4FF0204B8E55AB40A12E592
:1002CE0059B4140D7BFF7A0779197D04E4FF0204FB
:1002DE00B8E55AB40A12E559B40F0D7BFF7A0779C7
:1002EE002A7D04E4FF0204B8E55AB40A12E559B4B3
:1002FE00100D7BFF7A07793B7D04E4FF0204B8E51D
:10030E005AB40A12E559B4180D7BFF7A07794C7D61
:10031E0004E4FF0204B8E55AB40A12E559B41F0DFD
:10032E007BFF7A07795D7D04E4FF0204B8E55AB4D9
:10033E000B12E559B4010D7BFF7A07796E7D04E44B
:10034E00FF0204B8E55AB40B12E559B4110D7BFF48
:10035E007A07797F7D04E4FF0204B8E55AB40C12E3
:10036E00E559B4010D7BFF7A0779907D04E4FF0215
:10037E0004B8E55AB40C12E559B40A0D7BFF7A079E
:10038E0079A17D04E4FF0204B8E55AB40C12E559D4
:10039E00B4180D7BFF7A0779B27D04E4FF0204B82E
:1003AE00E55AB40C12E559B4190D7BFF7A0779C3DF
:1003BE007D04E4FF0204B8E55AB40C12E559B40109
:1003CE000D7BFF7A0779907D04E4FF0204B8E55AAD
:1003DE00B40C12E559B41F0D7BFF7A0779D57D0455
:1003EE00E4FF0204B8E558C394044013E55894069C
:1003FE00500D7BFF7A0779E67D04E4FF1211E7E5E5
:10040E0058C394064013E5589408500D7BFF7A07A5
:10041E0079F77D04E4FF1211E7E558C39408401301
:10042E00E558940C500D7BFF7A0879087D04E4FFA3
:10043E001211E7E558B40C0D7BFF7A0879197D048B
:10044E00E4FF1211E7E558C3940D4013E5589412DA
:10045E00500D7BFF7A08792A7D04E4FF1211E7E53F
:10046E0058C394124013E5589416500D7BFF7A082A
:10047E00793B7D04E4FF1211E7E558C3941640134F
:10048E00E5589417500D7BFF7A08794C7D04E4FFF4
:10049E001211E7E558C394004013E5589404500D2B
:0E04AE007BFF7A08794C7D04E4FF1211E722EF
:060E4E0002630000C182F6
:10121400D2A37F087E001213E6C2A37F507E001281
:1012240013E6D2A37F087E001213E6A2A3E433F5EB
:0C1234005F7F047E001213E6D2A3AF5FC0
:01124000228B
:02126E008F5F90
:10127000E4F560C2A3E55F1392A37F0A7E00121318
:10128000E6D2A3E55FC313F55F0560E560C394088C
:0912900040E17F047E000213E638
:1012C300E4F560C2A3E55FC313F55FD2A330A303C4
:1012D300435F807F0A7E001213E6D2A30560E560B8
:0712E300C3940840DEAF5F79
:0112EA0022E1
:10114700121214BF0103C202227FCC12126E7F4417
:1011570012126E1212147FCC12126E7FBE12126E12
:101167001212C38F631212C38F641212C3788CA634
:0B117700071212C3788DA607D20222D7
:101241001212147FCC12126E7F4E12126E788CE63F
:10125100FF12126E788DE6FF12126E7F7F12126EF0
:0D1261001212147FCC12126E7F4802126E22
:100E5400117B48493A20202020204C493A20202068
:0B0E6400202000028C130CC100C10113
:100B2A00E4FF788CE6FEC3648094805005EEF404FA
:100B3A00F60F788CE6FE75F06412085D2430787F33
:100B4A00F6EE75F00A12085DFE75F00A12085DAE3F
:100B5A00F0EE24307880F6788CE6FE75F00A1208FA
:100B6A005DAEF0EE24307881F6787FE6700276206A
:100B7A00787FE6700608E670027620EF60187880C3
:100B8A00E6B42004762D800E787FE6B42004762D14
:100B9A008004787E762DE4FF788DE6FEC364809427
:100BAA00805005EEF404F60F788DE6FE75F06412B7
:100BBA00085D24307887F6EE75F00A12085DFE7536
:100BCA00F00A12085DAEF0EE24307888F6788DE6E9
:100BDA00FE75F00A12085DAEF0EE24307889F678D8
:100BEA0087E6700276207887E6700608E670027655
:100BFA0020EF60187888E6B42004762D800E788776
:100C0A00E6B42004762D80047886762D7B007A005F
:090C1A00797B7D03E4FF0211E780
:1013B90000010102030304040506060708080909D8
:100E6F00046500000000116974656D703A20202040
:0C0E7F0020202020A1E6202000017A00A5
:100C2300755E96E4F55F7F0AFE1213E6E56454F8F9
:100C3300FFBFF8106364FFE563F404F56370020516
:100C430064755F01E563540F9013B9937865F6E516
:100C5300645407C454F0FFE56354F0C4540F4F7851
:100C63007AF6E55F6006E6F404FF8004787AE6FF2F
:100C7300788CE6C36480F8EF6480984003D38001E6
:100C8300C39200788DE6D36480F8EF6480985002B5
:100C93008001C39201787AE6FF75F064847868F680
:100CA300EF75F06484E5F075F00A8418F6787AE657
:100CB30075F00A84AFF07866EFF618E6243079739E
:100CC300F77872762EEF243018F67867E6FF243033
:100CD3007870F67868E6FE2430786FF6EE70027668
:100CE300207868E67007EF700478707620E55F601F
:100CF300187870E6B42004762D800E786FE6B42061
:100D030004762D8004786E762D7B007A0079697DD8
:060D130003E4FF0211E7FA
:1013090053554D004D4F4E005455530057454E000F
:0C1319005448550046524900534154000E
:100E8B001508FF1309FF130DFF1311FF1315FF13A4
:0B0E9B0019FF131DFF1321021D0000B2
:0E13D800438901758CFD758A18D2AFD2A92207
:03000B000211825D
:10118200C0E0758CFD758A18B2B5051EE51E7002A9
:10119200051D64C8451D7018F51DF51E300004B20A
:1011A200B78002D2B7300104B2B68002D2B6C28C86
:0311B200D0E03258
:100A0A001213D81212411211471212141210821222
:100A1A0010367F017E001212EB1211471210C98F95
:100A2A005DE548F4707912110C7B007A00792AAFDF
:100A3A005C1213587B007A00792EAF5A1213587B36
:100A4A00007A007932AF591213587B007A0079374D
:100A5A00AF581213587B007A00793BAF57121358DC
:100A6A007B007A00793FAF56121358E55B75F003A5
:100A7A00A42405F8860308E6FA08E6F978447C0017
:100A8A007D001209ED7B007A0079287D01E4FF12CE
:100A9A0011E77B007A0079377D02E4FF1211E71231
:100AAA00000E30020F200003300104D28C8002C2F3
:100ABA008C120C23E55DF47003020A23AF5D120F5A
:100ACA00C97B007A00792AAF5C1213587B007A003E
:100ADA00792EAF5A1213587B007A007932AF591225
:100AEA0013587B007A0079287D01E4FF1211E77B15
:100AFA00007A007937AF581213587B007A00793B95
:100B0A00AF571213587B007A00793FAF5612135829
:100B1A007B007A0079377D02E4FF1211E7020A238B
:100F4900020A0AE493A3F8E493A34003F68001F2AA
:100F590008DFF48029E493A3F85407240CC8C333A9
:100F6900C4540F4420C8834004F456800146F6DF78
:100F7900E4800B0102040810204080900E06E47EF4
:100F8900019360BCA3FF543F30E509541FFEE4936D
:100F9900A360010ECF54C025E060A840B8E493A334
:100FA900FAE493A3F8E493A3C8C582C8CAC583CA5F
:100FB900F0A3C8C582C8CAC583CADFE9DEE780BE17
:010EA600004B
:10085D00C2D530F707B2D563F0FF05F030E70CB223
:10086D00D5F4048463F0FF05F080018430D502F4E3
:02087D00042253
:10087F00BB010689828A83E0225002E722BBFE0277
:09088F00E32289828A83E49322AA
:10089800BB010689828A83F0225002F722BBFE013F
:0208A800F32239
:1008AA00F8BB010DE58229F582E5833AF583E8F084
:1008BA00225006E92582C8F622BBFE05E92582C830
:0208CA00F22218
:1008CC00BC000BBE0029EF8DF084FFADF022E4CC10
:1008DC00F875F008EF2FFFEE33FEEC33FCEE9DECD9
:1008EC00984005FCEE9DFE0FD5F0E9E4CEFD22ED1F
:1008FC00F8F5F0EE8420D21CFEADF075F008EF2F69
:10090C00FFED33FD4007985006D5F0F222C398FD59
:05091C000FD5F0EA22F6
:10092100E709F60870FA8046E709F20870FA803E96
:1009310088828C83E709F0A370FA807EE309F608C8
:1009410070FA8076E309F20870FA806E88828C83EF
:10095100E309F0A370FA806289828A83E0A3F60832
:1009610070FA805689828A83E0A3F20870FA804A7D
:1009710080D280FA80C680D4806580F28031801078
:1009810080A680EA809A80A880DA80E280CA8031DD
:1009910089828A83ECFAE493A3C8C582C8CCC58353
:1009A100CCF0A3C8C582C8CCC583CC70E9800D89C1
:1009B100828A83E493A3F60870F9ECFAA9F0EDFBBF
:1009C1002289828A83ECFAE0A3C8C582C8CCC58398
:1009D100CCF0A3C8C582C8CCC583CC70EA80DD89C0
:1009E100828A83E493A3F20870F980CE88F0ED2423
:1009F10002B4040050C4F582EB2402B4040050BADE
:090A01002323458223900971733F
:00000001FF
